{
  "_format": "hh-sol-artifact-1",
  "contractName": "CryptoBank",
  "sourceName": "contracts/cryptoBank.sol",
  "abi": [
    {
      "inputs": [],
      "stateMutability": "nonpayable",
      "type": "constructor"
    },
    {
      "inputs": [
        {
          "internalType": "address",
          "name": "owner",
          "type": "address"
        }
      ],
      "name": "OwnableInvalidOwner",
      "type": "error"
    },
    {
      "inputs": [
        {
          "internalType": "address",
          "name": "account",
          "type": "address"
        }
      ],
      "name": "OwnableUnauthorizedAccount",
      "type": "error"
    },
    {
      "anonymous": false,
      "inputs": [
        {
          "indexed": true,
          "internalType": "address",
          "name": "owner",
          "type": "address"
        },
        {
          "indexed": true,
          "internalType": "address",
          "name": "spender",
          "type": "address"
        },
        {
          "indexed": false,
          "internalType": "uint256",
          "name": "value",
          "type": "uint256"
        }
      ],
      "name": "Approval",
      "type": "event"
    },
    {
      "anonymous": false,
      "inputs": [
        {
          "indexed": true,
          "internalType": "address",
          "name": "previousOwner",
          "type": "address"
        },
        {
          "indexed": true,
          "internalType": "address",
          "name": "newOwner",
          "type": "address"
        }
      ],
      "name": "OwnershipTransferred",
      "type": "event"
    },
    {
      "anonymous": false,
      "inputs": [
        {
          "indexed": true,
          "internalType": "address",
          "name": "from",
          "type": "address"
        },
        {
          "indexed": true,
          "internalType": "address",
          "name": "to",
          "type": "address"
        },
        {
          "indexed": false,
          "internalType": "uint256",
          "name": "value",
          "type": "uint256"
        }
      ],
      "name": "Transfer",
      "type": "event"
    },
    {
      "inputs": [
        {
          "internalType": "address",
          "name": "",
          "type": "address"
        },
        {
          "internalType": "address",
          "name": "",
          "type": "address"
        }
      ],
      "name": "allowance",
      "outputs": [
        {
          "internalType": "uint256",
          "name": "",
          "type": "uint256"
        }
      ],
      "stateMutability": "view",
      "type": "function"
    },
    {
      "inputs": [
        {
          "internalType": "address",
          "name": "_spender",
          "type": "address"
        },
        {
          "internalType": "uint256",
          "name": "_amount",
          "type": "uint256"
        }
      ],
      "name": "approve",
      "outputs": [
        {
          "internalType": "bool",
          "name": "",
          "type": "bool"
        }
      ],
      "stateMutability": "nonpayable",
      "type": "function"
    },
    {
      "inputs": [
        {
          "internalType": "address",
          "name": "",
          "type": "address"
        }
      ],
      "name": "balanceOf",
      "outputs": [
        {
          "internalType": "uint256",
          "name": "",
          "type": "uint256"
        }
      ],
      "stateMutability": "view",
      "type": "function"
    },
    {
      "inputs": [],
      "name": "balanceOfBank",
      "outputs": [
        {
          "internalType": "uint256",
          "name": "",
          "type": "uint256"
        }
      ],
      "stateMutability": "view",
      "type": "function"
    },
    {
      "inputs": [
        {
          "internalType": "address",
          "name": "_spender",
          "type": "address"
        },
        {
          "internalType": "uint256",
          "name": "_subValue",
          "type": "uint256"
        }
      ],
      "name": "decreaseAllowance",
      "outputs": [],
      "stateMutability": "nonpayable",
      "type": "function"
    },
    {
      "inputs": [],
      "name": "deposit",
      "outputs": [],
      "stateMutability": "payable",
      "type": "function"
    },
    {
      "inputs": [
        {
          "internalType": "address",
          "name": "_spender",
          "type": "address"
        },
        {
          "internalType": "uint256",
          "name": "_addedValue",
          "type": "uint256"
        }
      ],
      "name": "increaseAllowance",
      "outputs": [],
      "stateMutability": "nonpayable",
      "type": "function"
    },
    {
      "inputs": [],
      "name": "owner",
      "outputs": [
        {
          "internalType": "address",
          "name": "",
          "type": "address"
        }
      ],
      "stateMutability": "view",
      "type": "function"
    },
    {
      "inputs": [],
      "name": "renounceOwnership",
      "outputs": [],
      "stateMutability": "nonpayable",
      "type": "function"
    },
    {
      "inputs": [
        {
          "internalType": "address",
          "name": "_to",
          "type": "address"
        },
        {
          "internalType": "uint256",
          "name": "_amount",
          "type": "uint256"
        }
      ],
      "name": "transfer",
      "outputs": [],
      "stateMutability": "nonpayable",
      "type": "function"
    },
    {
      "inputs": [
        {
          "internalType": "address",
          "name": "_from",
          "type": "address"
        },
        {
          "internalType": "address",
          "name": "_to",
          "type": "address"
        },
        {
          "internalType": "uint256",
          "name": "_amount",
          "type": "uint256"
        }
      ],
      "name": "transferFrom",
      "outputs": [],
      "stateMutability": "nonpayable",
      "type": "function"
    },
    {
      "inputs": [
        {
          "internalType": "address",
          "name": "newOwner",
          "type": "address"
        }
      ],
      "name": "transferOwnership",
      "outputs": [],
      "stateMutability": "nonpayable",
      "type": "function"
    },
    {
      "inputs": [
        {
          "internalType": "uint256",
          "name": "_amount",
          "type": "uint256"
        }
      ],
      "name": "withdraw",
      "outputs": [],
      "stateMutability": "nonpayable",
      "type": "function"
    }
  ],
  "bytecode": "0x6080604052348015600f57600080fd5b503380603557604051631e4fbdf760e01b81526000600482015260240160405180910390fd5b603c816041565b506091565b600080546001600160a01b038381166001600160a01b0319831681178455604051919092169283917f8be0079c531659141344cd1fd0a4f28419497f9722a3daafe3b4186f6b6457e09190a35050565b610be9806100a06000396000f3fe6080604052600436106100c25760003560e01c8063715018a61161007f578063a9059cbb11610059578063a9059cbb14610205578063d0e30db014610225578063dd62ed3e1461022d578063f2fde38b1461026557600080fd5b8063715018a6146101a85780638da5cb5b146101bd578063a457c2d7146101e557600080fd5b8063095ea7b3146100c757806323b872dd146100fc5780632e1a7d4d1461011e578063395093511461013e5780633ffddb3f1461015e57806370a082311461017b575b600080fd5b3480156100d357600080fd5b506100e76100e2366004610a14565b610285565b60405190151581526020015b60405180910390f35b34801561010857600080fd5b5061011c610117366004610a3e565b61031b565b005b34801561012a57600080fd5b5061011c610139366004610a7b565b610529565b34801561014a57600080fd5b5061011c610159366004610a14565b610634565b34801561016a57600080fd5b50475b6040519081526020016100f3565b34801561018757600080fd5b5061016d610196366004610a94565b60016020526000908152604090205481565b3480156101b457600080fd5b5061011c6106e9565b3480156101c957600080fd5b506000546040516001600160a01b0390911681526020016100f3565b3480156101f157600080fd5b5061011c610200366004610a14565b6106fd565b34801561021157600080fd5b5061011c610220366004610a14565b6107dc565b61011c6108ad565b34801561023957600080fd5b5061016d610248366004610ab6565b600260209081526000928352604080842090915290825290205481565b34801561027157600080fd5b5061011c610280366004610a94565b61093d565b60006001600160a01b0383166102b65760405162461bcd60e51b81526004016102ad90610ae9565b60405180910390fd5b3360008181526002602090815260408083206001600160a01b03881680855290835292819020869055518581529192917f8c5be1e5ebec7d5bd14f71427d1e84f3dd0314c0f7b2291e5b200ac8c7c3b925910160405180910390a35060015b92915050565b6001600160a01b0382166103415760405162461bcd60e51b81526004016102ad90610ae9565b6001600160a01b0383166000908152600160205260409020548111156103795760405162461bcd60e51b81526004016102ad90610b20565b6001600160a01b03831660009081526002602090815260408083203384529091529020548111156103fb5760405162461bcd60e51b815260206004820152602660248201527f7573657220646f65736e2774206861766520656e6f75676820616c6c6f776564604482015265206d6f6e657960d01b60648201526084016102ad565b6001600160a01b03831660009081526001602052604081208054839290610423908490610b6d565b90915550506001600160a01b03821660009081526001602052604081208054839290610450908490610b80565b90915550506001600160a01b038316600090815260026020908152604080832033845290915281208054839290610488908490610b6d565b92505081905550816001600160a01b0316836001600160a01b0316600080516020610b94833981519152836040516104c291815260200190565b60405180910390a36001600160a01b038316600081815260026020908152604080832033808552908352928190205490519081529192917f8c5be1e5ebec7d5bd14f71427d1e84f3dd0314c0f7b2291e5b200ac8c7c3b925910160405180910390a3505050565b336000908152600160205260409020548111156105585760405162461bcd60e51b81526004016102ad90610b20565b3360009081526001602052604081208054839290610577908490610b6d565b9091555050604051600090339083908381818185875af1925050503d80600081146105be576040519150601f19603f3d011682016040523d82523d6000602084013e6105c3565b606091505b505090508061060a5760405162461bcd60e51b8152602060048201526013602482015272115512081d1c985b9cd9995c8819985a5b1959606a1b60448201526064016102ad565b60405182815233903090600080516020610b94833981519152906020015b60405180910390a35050565b6001600160a01b03821661065a5760405162461bcd60e51b81526004016102ad90610ae9565b3360009081526002602090815260408083206001600160a01b03861684529091528120805483929061068d908490610b80565b90915550503360008181526002602090815260408083206001600160a01b038716808552908352928190205490519081529192917f8c5be1e5ebec7d5bd14f71427d1e84f3dd0314c0f7b2291e5b200ac8c7c3b9259101610628565b6106f161097b565b6106fb60006109a8565b565b6001600160a01b0382166107235760405162461bcd60e51b81526004016102ad90610ae9565b3360009081526002602090815260408083206001600160a01b03861684529091529020548111156107a95760405162461bcd60e51b815260206004820152602a60248201527f76616c756520746f207375627472616374696f6e206973206d6f7265207468616044820152696e20757365722068617360b01b60648201526084016102ad565b3360009081526002602090815260408083206001600160a01b03861684529091528120805483929061068d908490610b6d565b6001600160a01b0382166108025760405162461bcd60e51b81526004016102ad90610ae9565b336000908152600160205260409020548111156108315760405162461bcd60e51b81526004016102ad90610b20565b3360009081526001602052604081208054839290610850908490610b6d565b90915550506001600160a01b0382166000908152600160205260408120805483929061087d908490610b80565b90915550506040518181526001600160a01b038316903390600080516020610b9483398151915290602001610628565b600034116108f25760405162461bcd60e51b815260206004820152601260248201527163616e2774206465706f736974207a65726f60701b60448201526064016102ad565b3360009081526001602052604081208054349290610911908490610b80565b909155505060405134815230903390600080516020610b948339815191529060200160405180910390a3565b61094561097b565b6001600160a01b03811661096f57604051631e4fbdf760e01b8152600060048201526024016102ad565b610978816109a8565b50565b6000546001600160a01b031633146106fb5760405163118cdaa760e01b81523360048201526024016102ad565b600080546001600160a01b038381166001600160a01b0319831681178455604051919092169283917f8be0079c531659141344cd1fd0a4f28419497f9722a3daafe3b4186f6b6457e09190a35050565b80356001600160a01b0381168114610a0f57600080fd5b919050565b60008060408385031215610a2757600080fd5b610a30836109f8565b946020939093013593505050565b600080600060608486031215610a5357600080fd5b610a5c846109f8565b9250610a6a602085016109f8565b929592945050506040919091013590565b600060208284031215610a8d57600080fd5b5035919050565b600060208284031215610aa657600080fd5b610aaf826109f8565b9392505050565b60008060408385031215610ac957600080fd5b610ad2836109f8565b9150610ae0602084016109f8565b90509250929050565b60208082526019908201527f496e636f7272656374206164647265737320656e746572656400000000000000604082015260600190565b6020808252601e908201527f7573657220646f65736e2774206861766520656e6f756768206d6f6e65790000604082015260600190565b634e487b7160e01b600052601160045260246000fd5b8181038181111561031557610315610b57565b8082018082111561031557610315610b5756feddf252ad1be2c89b69c2b068fc378daa952ba7f163c4a11628f55a4df523b3efa2646970667358221220443a0924c140a056f5b6156e475362213f581412112ff0c2628ef71e6b8f52f064736f6c634300081e0033",
  "linkReferences": {},
  "deployedLinkReferences": {}
}