{
  "_format": "hh-sol-artifact-1",
  "contractName": "CryptoBank",
  "sourceName": "contracts/cryptoBank.sol",
  "abi": [
    {
      "inputs": [],
      "stateMutability": "nonpayable",
      "type": "constructor"
    },
    {
      "inputs": [
        {
          "internalType": "address",
          "name": "owner",
          "type": "address"
        }
      ],
      "name": "OwnableInvalidOwner",
      "type": "error"
    },
    {
      "inputs": [
        {
          "internalType": "address",
          "name": "account",
          "type": "address"
        }
      ],
      "name": "OwnableUnauthorizedAccount",
      "type": "error"
    },
    {
      "anonymous": false,
      "inputs": [
        {
          "indexed": true,
          "internalType": "address",
          "name": "owner",
          "type": "address"
        },
        {
          "indexed": true,
          "internalType": "address",
          "name": "spender",
          "type": "address"
        },
        {
          "indexed": false,
          "internalType": "uint256",
          "name": "value",
          "type": "uint256"
        }
      ],
      "name": "Approval",
      "type": "event"
    },
    {
      "anonymous": false,
      "inputs": [
        {
          "indexed": true,
          "internalType": "address",
          "name": "previousOwner",
          "type": "address"
        },
        {
          "indexed": true,
          "internalType": "address",
          "name": "newOwner",
          "type": "address"
        }
      ],
      "name": "OwnershipTransferred",
      "type": "event"
    },
    {
      "anonymous": false,
      "inputs": [
        {
          "indexed": true,
          "internalType": "address",
          "name": "from",
          "type": "address"
        },
        {
          "indexed": true,
          "internalType": "address",
          "name": "to",
          "type": "address"
        },
        {
          "indexed": false,
          "internalType": "uint256",
          "name": "value",
          "type": "uint256"
        }
      ],
      "name": "Transfer",
      "type": "event"
    },
    {
      "inputs": [
        {
          "internalType": "address",
          "name": "",
          "type": "address"
        },
        {
          "internalType": "address",
          "name": "",
          "type": "address"
        }
      ],
      "name": "allowance",
      "outputs": [
        {
          "internalType": "uint256",
          "name": "",
          "type": "uint256"
        }
      ],
      "stateMutability": "view",
      "type": "function"
    },
    {
      "inputs": [
        {
          "internalType": "address",
          "name": "_spender",
          "type": "address"
        },
        {
          "internalType": "uint256",
          "name": "_amount",
          "type": "uint256"
        }
      ],
      "name": "approve",
      "outputs": [
        {
          "internalType": "bool",
          "name": "",
          "type": "bool"
        }
      ],
      "stateMutability": "nonpayable",
      "type": "function"
    },
    {
      "inputs": [
        {
          "internalType": "address",
          "name": "",
          "type": "address"
        }
      ],
      "name": "balanceOf",
      "outputs": [
        {
          "internalType": "uint256",
          "name": "",
          "type": "uint256"
        }
      ],
      "stateMutability": "view",
      "type": "function"
    },
    {
      "inputs": [],
      "name": "balanceOfBank",
      "outputs": [
        {
          "internalType": "uint256",
          "name": "",
          "type": "uint256"
        }
      ],
      "stateMutability": "view",
      "type": "function"
    },
    {
      "inputs": [],
      "name": "balanceOfExcess",
      "outputs": [
        {
          "internalType": "uint256",
          "name": "",
          "type": "uint256"
        }
      ],
      "stateMutability": "view",
      "type": "function"
    },
    {
      "inputs": [
        {
          "internalType": "address",
          "name": "_spender",
          "type": "address"
        },
        {
          "internalType": "uint256",
          "name": "_subValue",
          "type": "uint256"
        }
      ],
      "name": "decreaseAllowance",
      "outputs": [],
      "stateMutability": "nonpayable",
      "type": "function"
    },
    {
      "inputs": [],
      "name": "deposit",
      "outputs": [],
      "stateMutability": "payable",
      "type": "function"
    },
    {
      "inputs": [
        {
          "internalType": "address",
          "name": "_spender",
          "type": "address"
        },
        {
          "internalType": "uint256",
          "name": "_addedValue",
          "type": "uint256"
        }
      ],
      "name": "increaseAllowance",
      "outputs": [],
      "stateMutability": "nonpayable",
      "type": "function"
    },
    {
      "inputs": [],
      "name": "mintExcess",
      "outputs": [],
      "stateMutability": "nonpayable",
      "type": "function"
    },
    {
      "inputs": [],
      "name": "owner",
      "outputs": [
        {
          "internalType": "address",
          "name": "",
          "type": "address"
        }
      ],
      "stateMutability": "view",
      "type": "function"
    },
    {
      "inputs": [],
      "name": "renounceOwnership",
      "outputs": [],
      "stateMutability": "nonpayable",
      "type": "function"
    },
    {
      "inputs": [
        {
          "internalType": "address",
          "name": "_to",
          "type": "address"
        },
        {
          "internalType": "uint256",
          "name": "_amount",
          "type": "uint256"
        }
      ],
      "name": "transfer",
      "outputs": [],
      "stateMutability": "nonpayable",
      "type": "function"
    },
    {
      "inputs": [
        {
          "internalType": "address",
          "name": "_from",
          "type": "address"
        },
        {
          "internalType": "address",
          "name": "_to",
          "type": "address"
        },
        {
          "internalType": "uint256",
          "name": "_amount",
          "type": "uint256"
        }
      ],
      "name": "transferFrom",
      "outputs": [],
      "stateMutability": "nonpayable",
      "type": "function"
    },
    {
      "inputs": [
        {
          "internalType": "address",
          "name": "newOwner",
          "type": "address"
        }
      ],
      "name": "transferOwnership",
      "outputs": [],
      "stateMutability": "nonpayable",
      "type": "function"
    },
    {
      "inputs": [
        {
          "internalType": "uint256",
          "name": "_amount",
          "type": "uint256"
        }
      ],
      "name": "withdraw",
      "outputs": [],
      "stateMutability": "nonpayable",
      "type": "function"
    },
    {
      "stateMutability": "payable",
      "type": "receive"
    }
  ],
  "bytecode": "0x6080604052348015600f57600080fd5b503380603557604051631e4fbdf760e01b81526000600482015260240160405180910390fd5b603c816041565b506091565b600080546001600160a01b038381166001600160a01b0319831681178455604051919092169283917f8be0079c531659141344cd1fd0a4f28419497f9722a3daafe3b4186f6b6457e09190a35050565b610d7e806100a06000396000f3fe6080604052600436106100ec5760003560e01c806370a082311161008a578063a9059cbb11610059578063a9059cbb14610264578063d0e30db014610284578063dd62ed3e1461028c578063f2fde38b146102c457600080fd5b806370a08231146101da578063715018a6146102075780638da5cb5b1461021c578063a457c2d71461024457600080fd5b806329fd8f19116100c657806329fd8f19146101645780632e1a7d4d1461018757806339509351146101a75780633ffddb3f146101c757600080fd5b806303615ce5146100f8578063095ea7b31461010f57806323b872dd1461014457600080fd5b366100f357005b600080fd5b34801561010457600080fd5b5061010d6102e4565b005b34801561011b57600080fd5b5061012f61012a366004610ba9565b6103d5565b60405190151581526020015b60405180910390f35b34801561015057600080fd5b5061010d61015f366004610bd3565b610462565b34801561017057600080fd5b50610179610670565b60405190815260200161013b565b34801561019357600080fd5b5061010d6101a2366004610c10565b61068c565b3480156101b357600080fd5b5061010d6101c2366004610ba9565b6107b0565b3480156101d357600080fd5b5047610179565b3480156101e657600080fd5b506101796101f5366004610c29565b60026020526000908152604090205481565b34801561021357600080fd5b5061010d610865565b34801561022857600080fd5b506000546040516001600160a01b03909116815260200161013b565b34801561025057600080fd5b5061010d61025f366004610ba9565b610879565b34801561027057600080fd5b5061010d61027f366004610ba9565b610958565b61010d610a29565b34801561029857600080fd5b506101796102a7366004610c4b565b600360209081526000928352604080842090915290825290205481565b3480156102d057600080fd5b5061010d6102df366004610c29565b610ad2565b6102ec610b10565b6000600154476102fc9190610c94565b9050600081116103435760405162461bcd60e51b815260206004820152600d60248201526c0dcde40caf0c6cae6e6408aa89609b1b60448201526064015b60405180910390fd5b604051600090339083908381818185875af1925050503d8060008114610385576040519150601f19603f3d011682016040523d82523d6000602084013e61038a565b606091505b50509050806103d15760405162461bcd60e51b8152602060048201526013602482015272115512081d1c985b9cd9995c8819985a5b1959606a1b604482015260640161033a565b5050565b60006001600160a01b0383166103fd5760405162461bcd60e51b815260040161033a90610ca7565b3360008181526003602090815260408083206001600160a01b03881680855290835292819020869055518581529192917f8c5be1e5ebec7d5bd14f71427d1e84f3dd0314c0f7b2291e5b200ac8c7c3b925910160405180910390a35060015b92915050565b6001600160a01b0382166104885760405162461bcd60e51b815260040161033a90610ca7565b6001600160a01b0383166000908152600260205260409020548111156104c05760405162461bcd60e51b815260040161033a90610cde565b6001600160a01b03831660009081526003602090815260408083203384529091529020548111156105425760405162461bcd60e51b815260206004820152602660248201527f7573657220646f65736e2774206861766520656e6f75676820616c6c6f776564604482015265206d6f6e657960d01b606482015260840161033a565b6001600160a01b0383166000908152600260205260408120805483929061056a908490610c94565b90915550506001600160a01b03821660009081526002602052604081208054839290610597908490610d15565b90915550506001600160a01b0383166000908152600360209081526040808320338452909152812080548392906105cf908490610c94565b92505081905550816001600160a01b0316836001600160a01b0316600080516020610d298339815191528360405161060991815260200190565b60405180910390a36001600160a01b038316600081815260036020908152604080832033808552908352928190205490519081529192917f8c5be1e5ebec7d5bd14f71427d1e84f3dd0314c0f7b2291e5b200ac8c7c3b925910160405180910390a3505050565b600061067a610b10565b6001546106879047610c94565b905090565b336000908152600260205260409020548111156106bb5760405162461bcd60e51b815260040161033a90610cde565b33600090815260026020526040812080548392906106da908490610c94565b9250508190555080600160008282546106f39190610c94565b9091555050604051600090339083908381818185875af1925050503d806000811461073a576040519150601f19603f3d011682016040523d82523d6000602084013e61073f565b606091505b50509050806107865760405162461bcd60e51b8152602060048201526013602482015272115512081d1c985b9cd9995c8819985a5b1959606a1b604482015260640161033a565b60405182815233903090600080516020610d29833981519152906020015b60405180910390a35050565b6001600160a01b0382166107d65760405162461bcd60e51b815260040161033a90610ca7565b3360009081526003602090815260408083206001600160a01b038616845290915281208054839290610809908490610d15565b90915550503360008181526003602090815260408083206001600160a01b038716808552908352928190205490519081529192917f8c5be1e5ebec7d5bd14f71427d1e84f3dd0314c0f7b2291e5b200ac8c7c3b92591016107a4565b61086d610b10565b6108776000610b3d565b565b6001600160a01b03821661089f5760405162461bcd60e51b815260040161033a90610ca7565b3360009081526003602090815260408083206001600160a01b03861684529091529020548111156109255760405162461bcd60e51b815260206004820152602a60248201527f76616c756520746f207375627472616374696f6e206973206d6f7265207468616044820152696e20757365722068617360b01b606482015260840161033a565b3360009081526003602090815260408083206001600160a01b038616845290915281208054839290610809908490610c94565b6001600160a01b03821661097e5760405162461bcd60e51b815260040161033a90610ca7565b336000908152600260205260409020548111156109ad5760405162461bcd60e51b815260040161033a90610cde565b33600090815260026020526040812080548392906109cc908490610c94565b90915550506001600160a01b038216600090815260026020526040812080548392906109f9908490610d15565b90915550506040518181526001600160a01b038316903390600080516020610d29833981519152906020016107a4565b60003411610a6e5760405162461bcd60e51b815260206004820152601260248201527163616e2774206465706f736974207a65726f60701b604482015260640161033a565b3360009081526002602052604081208054349290610a8d908490610d15565b925050819055503460016000828254610aa69190610d15565b909155505060405134815230903390600080516020610d298339815191529060200160405180910390a3565b610ada610b10565b6001600160a01b038116610b0457604051631e4fbdf760e01b81526000600482015260240161033a565b610b0d81610b3d565b50565b6000546001600160a01b031633146108775760405163118cdaa760e01b815233600482015260240161033a565b600080546001600160a01b038381166001600160a01b0319831681178455604051919092169283917f8be0079c531659141344cd1fd0a4f28419497f9722a3daafe3b4186f6b6457e09190a35050565b80356001600160a01b0381168114610ba457600080fd5b919050565b60008060408385031215610bbc57600080fd5b610bc583610b8d565b946020939093013593505050565b600080600060608486031215610be857600080fd5b610bf184610b8d565b9250610bff60208501610b8d565b929592945050506040919091013590565b600060208284031215610c2257600080fd5b5035919050565b600060208284031215610c3b57600080fd5b610c4482610b8d565b9392505050565b60008060408385031215610c5e57600080fd5b610c6783610b8d565b9150610c7560208401610b8d565b90509250929050565b634e487b7160e01b600052601160045260246000fd5b8181038181111561045c5761045c610c7e565b60208082526019908201527f496e636f7272656374206164647265737320656e746572656400000000000000604082015260600190565b6020808252601e908201527f7573657220646f65736e2774206861766520656e6f756768206d6f6e65790000604082015260600190565b8082018082111561045c5761045c610c7e56feddf252ad1be2c89b69c2b068fc378daa952ba7f163c4a11628f55a4df523b3efa2646970667358221220ba3107287e9a7d72b3095ff81933e49b3c157b4f374e42fdd72e4d4d9917d1cf64736f6c634300081e0033",
  "linkReferences": {},
  "deployedLinkReferences": {}
}