{
  "_format": "hh-sol-artifact-1",
  "contractName": "CryptoBank",
  "sourceName": "contracts/cryptoBank.sol",
  "abi": [
    {
      "inputs": [],
      "stateMutability": "nonpayable",
      "type": "constructor"
    },
    {
      "inputs": [
        {
          "internalType": "address",
          "name": "owner",
          "type": "address"
        }
      ],
      "name": "OwnableInvalidOwner",
      "type": "error"
    },
    {
      "inputs": [
        {
          "internalType": "address",
          "name": "account",
          "type": "address"
        }
      ],
      "name": "OwnableUnauthorizedAccount",
      "type": "error"
    },
    {
      "anonymous": false,
      "inputs": [
        {
          "indexed": true,
          "internalType": "address",
          "name": "owner",
          "type": "address"
        },
        {
          "indexed": true,
          "internalType": "address",
          "name": "spender",
          "type": "address"
        },
        {
          "indexed": false,
          "internalType": "uint256",
          "name": "value",
          "type": "uint256"
        }
      ],
      "name": "Approval",
      "type": "event"
    },
    {
      "anonymous": false,
      "inputs": [
        {
          "indexed": true,
          "internalType": "address",
          "name": "previousOwner",
          "type": "address"
        },
        {
          "indexed": true,
          "internalType": "address",
          "name": "newOwner",
          "type": "address"
        }
      ],
      "name": "OwnershipTransferred",
      "type": "event"
    },
    {
      "anonymous": false,
      "inputs": [
        {
          "indexed": true,
          "internalType": "address",
          "name": "from",
          "type": "address"
        },
        {
          "indexed": true,
          "internalType": "address",
          "name": "to",
          "type": "address"
        },
        {
          "indexed": false,
          "internalType": "uint256",
          "name": "value",
          "type": "uint256"
        }
      ],
      "name": "Transfer",
      "type": "event"
    },
    {
      "inputs": [
        {
          "internalType": "address",
          "name": "",
          "type": "address"
        }
      ],
      "name": "balanceOf",
      "outputs": [
        {
          "internalType": "uint256",
          "name": "",
          "type": "uint256"
        }
      ],
      "stateMutability": "view",
      "type": "function"
    },
    {
      "inputs": [],
      "name": "deposit",
      "outputs": [],
      "stateMutability": "payable",
      "type": "function"
    },
    {
      "inputs": [],
      "name": "owner",
      "outputs": [
        {
          "internalType": "address",
          "name": "",
          "type": "address"
        }
      ],
      "stateMutability": "view",
      "type": "function"
    },
    {
      "inputs": [],
      "name": "renounceOwnership",
      "outputs": [],
      "stateMutability": "nonpayable",
      "type": "function"
    },
    {
      "inputs": [
        {
          "internalType": "address",
          "name": "newOwner",
          "type": "address"
        }
      ],
      "name": "transferOwnership",
      "outputs": [],
      "stateMutability": "nonpayable",
      "type": "function"
    },
    {
      "inputs": [
        {
          "internalType": "uint256",
          "name": "_amount",
          "type": "uint256"
        }
      ],
      "name": "withdraw",
      "outputs": [],
      "stateMutability": "nonpayable",
      "type": "function"
    }
  ],
  "bytecode": "0x6080604052348015600f57600080fd5b503380603557604051631e4fbdf760e01b81526000600482015260240160405180910390fd5b603c816041565b506091565b600080546001600160a01b038381166001600160a01b0319831681178455604051919092169283917f8be0079c531659141344cd1fd0a4f28419497f9722a3daafe3b4186f6b6457e09190a35050565b6104a4806100a06000396000f3fe6080604052600436106100555760003560e01c80632e1a7d4d1461005a57806370a082311461007c578063715018a6146100bc5780638da5cb5b146100d1578063d0e30db0146100f9578063f2fde38b14610101575b600080fd5b34801561006657600080fd5b5061007a6100753660046103e3565b610121565b005b34801561008857600080fd5b506100a96100973660046103fc565b60016020526000908152604090205481565b6040519081526020015b60405180910390f35b3480156100c857600080fd5b5061007a610272565b3480156100dd57600080fd5b506000546040516001600160a01b0390911681526020016100b3565b61007a610286565b34801561010d57600080fd5b5061007a61011c3660046103fc565b610328565b336000908152600160205260409020548111156101855760405162461bcd60e51b815260206004820152601e60248201527f7573657220646f65736e2774206861766520656e6f756768206d6f6e6579000060448201526064015b60405180910390fd5b33600090815260016020526040812080548392906101a4908490610442565b9091555050604051600090339083908381818185875af1925050503d80600081146101eb576040519150601f19603f3d011682016040523d82523d6000602084013e6101f0565b606091505b50509050806102375760405162461bcd60e51b8152602060048201526013602482015272115512081d1c985b9cd9995c8819985a5b1959606a1b604482015260640161017c565b604051828152339030907fddf252ad1be2c89b69c2b068fc378daa952ba7f163c4a11628f55a4df523b3ef9060200160405180910390a35050565b61027a610366565b6102846000610393565b565b600034116102cb5760405162461bcd60e51b815260206004820152601260248201527163616e2774206465706f736974207a65726f60701b604482015260640161017c565b33600090815260016020526040812080543492906102ea90849061045b565b9091555050604051348152309033907fddf252ad1be2c89b69c2b068fc378daa952ba7f163c4a11628f55a4df523b3ef9060200160405180910390a3565b610330610366565b6001600160a01b03811661035a57604051631e4fbdf760e01b81526000600482015260240161017c565b61036381610393565b50565b6000546001600160a01b031633146102845760405163118cdaa760e01b815233600482015260240161017c565b600080546001600160a01b038381166001600160a01b0319831681178455604051919092169283917f8be0079c531659141344cd1fd0a4f28419497f9722a3daafe3b4186f6b6457e09190a35050565b6000602082840312156103f557600080fd5b5035919050565b60006020828403121561040e57600080fd5b81356001600160a01b038116811461042557600080fd5b9392505050565b634e487b7160e01b600052601160045260246000fd5b818103818111156104555761045561042c565b92915050565b808201808211156104555761045561042c56fea2646970667358221220415b09a937c75bb93adf27ab83f2c71a3766d7ec2ac3adb0238e6595075314e264736f6c634300081e0033",
  "linkReferences": {},
  "deployedLinkReferences": {}
}