{
  "_format": "hh-sol-artifact-1",
  "contractName": "MyERC20Token",
  "sourceName": "contracts/Learn.sol",
  "abi": [
    {
      "inputs": [],
      "stateMutability": "nonpayable",
      "type": "constructor"
    },
    {
      "anonymous": false,
      "inputs": [
        {
          "indexed": true,
          "internalType": "address",
          "name": "owner",
          "type": "address"
        },
        {
          "indexed": true,
          "internalType": "address",
          "name": "spender",
          "type": "address"
        },
        {
          "indexed": false,
          "internalType": "uint256",
          "name": "value",
          "type": "uint256"
        }
      ],
      "name": "Approval",
      "type": "event"
    },
    {
      "anonymous": false,
      "inputs": [
        {
          "indexed": true,
          "internalType": "address",
          "name": "from",
          "type": "address"
        },
        {
          "indexed": true,
          "internalType": "address",
          "name": "to",
          "type": "address"
        },
        {
          "indexed": false,
          "internalType": "uint256",
          "name": "value",
          "type": "uint256"
        }
      ],
      "name": "Transfer",
      "type": "event"
    },
    {
      "inputs": [
        {
          "internalType": "address",
          "name": "",
          "type": "address"
        },
        {
          "internalType": "address",
          "name": "",
          "type": "address"
        }
      ],
      "name": "allowedAddress",
      "outputs": [
        {
          "internalType": "uint256",
          "name": "",
          "type": "uint256"
        }
      ],
      "stateMutability": "view",
      "type": "function"
    },
    {
      "inputs": [
        {
          "internalType": "address",
          "name": "_spender",
          "type": "address"
        },
        {
          "internalType": "uint256",
          "name": "_amount",
          "type": "uint256"
        }
      ],
      "name": "approve",
      "outputs": [],
      "stateMutability": "nonpayable",
      "type": "function"
    },
    {
      "inputs": [
        {
          "internalType": "address",
          "name": "",
          "type": "address"
        }
      ],
      "name": "balanceOf",
      "outputs": [
        {
          "internalType": "uint256",
          "name": "",
          "type": "uint256"
        }
      ],
      "stateMutability": "view",
      "type": "function"
    },
    {
      "inputs": [],
      "name": "decimals",
      "outputs": [
        {
          "internalType": "uint8",
          "name": "",
          "type": "uint8"
        }
      ],
      "stateMutability": "view",
      "type": "function"
    },
    {
      "inputs": [],
      "name": "name",
      "outputs": [
        {
          "internalType": "string",
          "name": "",
          "type": "string"
        }
      ],
      "stateMutability": "view",
      "type": "function"
    },
    {
      "inputs": [],
      "name": "symbol",
      "outputs": [
        {
          "internalType": "string",
          "name": "",
          "type": "string"
        }
      ],
      "stateMutability": "view",
      "type": "function"
    },
    {
      "inputs": [],
      "name": "totalSupply",
      "outputs": [
        {
          "internalType": "uint256",
          "name": "",
          "type": "uint256"
        }
      ],
      "stateMutability": "view",
      "type": "function"
    },
    {
      "inputs": [
        {
          "internalType": "address",
          "name": "_to",
          "type": "address"
        },
        {
          "internalType": "uint256",
          "name": "_amount",
          "type": "uint256"
        }
      ],
      "name": "transfer",
      "outputs": [],
      "stateMutability": "nonpayable",
      "type": "function"
    },
    {
      "inputs": [
        {
          "internalType": "address",
          "name": "_from",
          "type": "address"
        },
        {
          "internalType": "address",
          "name": "_to",
          "type": "address"
        },
        {
          "internalType": "uint256",
          "name": "_amount",
          "type": "uint256"
        }
      ],
      "name": "transferFrom",
      "outputs": [],
      "stateMutability": "nonpayable",
      "type": "function"
    }
  ],
  "bytecode": "0x60c0604052600860809081526726bc902a37b5b2b760c11b60a0526000906100279082610167565b506040805180820190915260038152624d544b60e81b602082015260019061004f9082610167565b506002805460ff1916601217905569d3c21bcecceda100000060035534801561007757600080fd5b5060035433600081815260046020908152604080832085905551938452919290917fddf252ad1be2c89b69c2b068fc378daa952ba7f163c4a11628f55a4df523b3ef910160405180910390a3610225565b634e487b7160e01b600052604160045260246000fd5b600181811c908216806100f257607f821691505b60208210810361011257634e487b7160e01b600052602260045260246000fd5b50919050565b601f82111561016257806000526020600020601f840160051c8101602085101561013f5750805b601f840160051c820191505b8181101561015f576000815560010161014b565b50505b505050565b81516001600160401b03811115610180576101806100c8565b6101948161018e84546100de565b84610118565b6020601f8211600181146101c857600083156101b05750848201515b600019600385901b1c1916600184901b17845561015f565b600084815260208120601f198516915b828110156101f857878501518255602094850194600190920191016101d8565b50848210156102165786840151600019600387901b60f8161c191681555b50505050600190811b01905550565b61085a806102346000396000f3fe608060405234801561001057600080fd5b50600436106100935760003560e01c8063313ce56711610066578063313ce567146100f557806343a47f041461011457806370a082311461013f57806395d89b411461015f578063a9059cbb1461016757600080fd5b806306fdde0314610098578063095ea7b3146100b657806318160ddd146100cb57806323b872dd146100e2575b600080fd5b6100a061017a565b6040516100ad9190610682565b60405180910390f35b6100c96100c43660046106ec565b610208565b005b6100d460035481565b6040519081526020016100ad565b6100c96100f0366004610716565b6102e7565b6002546101029060ff1681565b60405160ff90911681526020016100ad565b6100d4610122366004610753565b600560209081526000928352604080842090915290825290205481565b6100d461014d366004610786565b60046020526000908152604090205481565b6100a06104f5565b6100c96101753660046106ec565b610502565b60008054610187906107a8565b80601f01602080910402602001604051908101604052809291908181526020018280546101b3906107a8565b80156102005780601f106101d557610100808354040283529160200191610200565b820191906000526020600020905b8154815290600101906020018083116101e357829003601f168201915b505050505081565b80158061023657503360009081526005602090815260408083206001600160a01b0386168452909152902054155b6102875760405162461bcd60e51b815260206004820152601b60248201527f53657420616c6c6f77616e636520746f207a65726f206669727374000000000060448201526064015b60405180910390fd5b3360008181526005602090815260408083206001600160a01b03871680855290835292819020859055518481529192917f8c5be1e5ebec7d5bd14f71427d1e84f3dd0314c0f7b2291e5b200ac8c7c3b92591015b60405180910390a35050565b6001600160a01b03821661033d5760405162461bcd60e51b815260206004820152601e60248201527f63616e2774207472616e7366657220746f207a65726f20616464726573730000604482015260640161027e565b6001600160a01b03831660009081526004602052604090205481111561039c5760405162461bcd60e51b8152602060048201526014602482015273496e73756666696369656e742062616c616e636560601b604482015260640161027e565b6001600160a01b038316600090815260056020908152604080832033845290915290205481111561040f5760405162461bcd60e51b815260206004820152601760248201527f4572726f72206f6e20616c6c6f77656441646472657373000000000000000000604482015260640161027e565b6001600160a01b038316600090815260046020526040812080548392906104379084906107f8565b90915550506001600160a01b03821660009081526004602052604081208054839290610464908490610811565b90915550506001600160a01b03831660009081526005602090815260408083203384529091528120805483929061049c9084906107f8565b92505081905550816001600160a01b0316836001600160a01b03167fddf252ad1be2c89b69c2b068fc378daa952ba7f163c4a11628f55a4df523b3ef836040516104e891815260200190565b60405180910390a3505050565b60018054610187906107a8565b600081116105485760405162461bcd60e51b81526020600482015260136024820152721d1a195c9948185c99481b9bc8185b5bdd5b9d606a1b604482015260640161027e565b6001600160a01b03821661059e5760405162461bcd60e51b815260206004820152601e60248201527f63616e2774207472616e7366657220746f207a65726f20616464726573730000604482015260640161027e565b336000908152600460205260409020548111156105f45760405162461bcd60e51b8152602060048201526014602482015273496e73756666696369656e742062616c616e636560601b604482015260640161027e565b33600090815260046020526040812080548392906106139084906107f8565b90915550506001600160a01b03821660009081526004602052604081208054839290610640908490610811565b90915550506040518181526001600160a01b0383169033907fddf252ad1be2c89b69c2b068fc378daa952ba7f163c4a11628f55a4df523b3ef906020016102db565b602081526000825180602084015260005b818110156106b05760208186018101516040868401015201610693565b506000604082850101526040601f19601f83011684010191505092915050565b80356001600160a01b03811681146106e757600080fd5b919050565b600080604083850312156106ff57600080fd5b610708836106d0565b946020939093013593505050565b60008060006060848603121561072b57600080fd5b610734846106d0565b9250610742602085016106d0565b929592945050506040919091013590565b6000806040838503121561076657600080fd5b61076f836106d0565b915061077d602084016106d0565b90509250929050565b60006020828403121561079857600080fd5b6107a1826106d0565b9392505050565b600181811c908216806107bc57607f821691505b6020821081036107dc57634e487b7160e01b600052602260045260246000fd5b50919050565b634e487b7160e01b600052601160045260246000fd5b8181038181111561080b5761080b6107e2565b92915050565b8082018082111561080b5761080b6107e256fea26469706673582212207a8a71bbd584a568a71d3ed4ab61def814f80a0934ccc80f9a206cf4efec792a64736f6c634300081e0033",
  "linkReferences": {},
  "deployedLinkReferences": {}
}