{
  "_format": "hh-sol-artifact-1",
  "contractName": "MyERC20Token",
  "sourceName": "contracts/MyERC20.sol",
  "abi": [
    {
      "inputs": [],
      "stateMutability": "nonpayable",
      "type": "constructor"
    },
    {
      "inputs": [],
      "name": "EnforcedPause",
      "type": "error"
    },
    {
      "inputs": [],
      "name": "ExpectedPause",
      "type": "error"
    },
    {
      "inputs": [
        {
          "internalType": "address",
          "name": "owner",
          "type": "address"
        }
      ],
      "name": "OwnableInvalidOwner",
      "type": "error"
    },
    {
      "inputs": [
        {
          "internalType": "address",
          "name": "account",
          "type": "address"
        }
      ],
      "name": "OwnableUnauthorizedAccount",
      "type": "error"
    },
    {
      "anonymous": false,
      "inputs": [
        {
          "indexed": true,
          "internalType": "address",
          "name": "owner",
          "type": "address"
        },
        {
          "indexed": true,
          "internalType": "address",
          "name": "spender",
          "type": "address"
        },
        {
          "indexed": false,
          "internalType": "uint256",
          "name": "value",
          "type": "uint256"
        }
      ],
      "name": "Approval",
      "type": "event"
    },
    {
      "anonymous": false,
      "inputs": [
        {
          "indexed": true,
          "internalType": "address",
          "name": "previousOwner",
          "type": "address"
        },
        {
          "indexed": true,
          "internalType": "address",
          "name": "newOwner",
          "type": "address"
        }
      ],
      "name": "OwnershipTransferred",
      "type": "event"
    },
    {
      "anonymous": false,
      "inputs": [
        {
          "indexed": false,
          "internalType": "address",
          "name": "account",
          "type": "address"
        }
      ],
      "name": "Paused",
      "type": "event"
    },
    {
      "anonymous": false,
      "inputs": [
        {
          "indexed": true,
          "internalType": "address",
          "name": "from",
          "type": "address"
        },
        {
          "indexed": true,
          "internalType": "address",
          "name": "to",
          "type": "address"
        },
        {
          "indexed": false,
          "internalType": "uint256",
          "name": "value",
          "type": "uint256"
        }
      ],
      "name": "Transfer",
      "type": "event"
    },
    {
      "anonymous": false,
      "inputs": [
        {
          "indexed": false,
          "internalType": "address",
          "name": "account",
          "type": "address"
        }
      ],
      "name": "Unpaused",
      "type": "event"
    },
    {
      "inputs": [
        {
          "internalType": "address",
          "name": "",
          "type": "address"
        },
        {
          "internalType": "address",
          "name": "",
          "type": "address"
        }
      ],
      "name": "allowedAddress",
      "outputs": [
        {
          "internalType": "uint256",
          "name": "",
          "type": "uint256"
        }
      ],
      "stateMutability": "view",
      "type": "function"
    },
    {
      "inputs": [
        {
          "internalType": "address",
          "name": "_spender",
          "type": "address"
        },
        {
          "internalType": "uint256",
          "name": "_amount",
          "type": "uint256"
        }
      ],
      "name": "approve",
      "outputs": [
        {
          "internalType": "bool",
          "name": "",
          "type": "bool"
        }
      ],
      "stateMutability": "nonpayable",
      "type": "function"
    },
    {
      "inputs": [
        {
          "internalType": "address",
          "name": "",
          "type": "address"
        }
      ],
      "name": "balanceOf",
      "outputs": [
        {
          "internalType": "uint256",
          "name": "",
          "type": "uint256"
        }
      ],
      "stateMutability": "view",
      "type": "function"
    },
    {
      "inputs": [],
      "name": "decimals",
      "outputs": [
        {
          "internalType": "uint8",
          "name": "",
          "type": "uint8"
        }
      ],
      "stateMutability": "view",
      "type": "function"
    },
    {
      "inputs": [
        {
          "internalType": "address",
          "name": "_to",
          "type": "address"
        },
        {
          "internalType": "uint256",
          "name": "_amount",
          "type": "uint256"
        }
      ],
      "name": "mint",
      "outputs": [],
      "stateMutability": "nonpayable",
      "type": "function"
    },
    {
      "inputs": [],
      "name": "name",
      "outputs": [
        {
          "internalType": "string",
          "name": "",
          "type": "string"
        }
      ],
      "stateMutability": "view",
      "type": "function"
    },
    {
      "inputs": [],
      "name": "owner",
      "outputs": [
        {
          "internalType": "address",
          "name": "",
          "type": "address"
        }
      ],
      "stateMutability": "view",
      "type": "function"
    },
    {
      "inputs": [],
      "name": "pause",
      "outputs": [],
      "stateMutability": "nonpayable",
      "type": "function"
    },
    {
      "inputs": [],
      "name": "paused",
      "outputs": [
        {
          "internalType": "bool",
          "name": "",
          "type": "bool"
        }
      ],
      "stateMutability": "view",
      "type": "function"
    },
    {
      "inputs": [],
      "name": "renounceOwnership",
      "outputs": [],
      "stateMutability": "nonpayable",
      "type": "function"
    },
    {
      "inputs": [],
      "name": "symbol",
      "outputs": [
        {
          "internalType": "string",
          "name": "",
          "type": "string"
        }
      ],
      "stateMutability": "view",
      "type": "function"
    },
    {
      "inputs": [],
      "name": "totalSupply",
      "outputs": [
        {
          "internalType": "uint256",
          "name": "",
          "type": "uint256"
        }
      ],
      "stateMutability": "view",
      "type": "function"
    },
    {
      "inputs": [
        {
          "internalType": "address",
          "name": "_to",
          "type": "address"
        },
        {
          "internalType": "uint256",
          "name": "_amount",
          "type": "uint256"
        }
      ],
      "name": "transfer",
      "outputs": [
        {
          "internalType": "bool",
          "name": "",
          "type": "bool"
        }
      ],
      "stateMutability": "nonpayable",
      "type": "function"
    },
    {
      "inputs": [
        {
          "internalType": "address",
          "name": "_from",
          "type": "address"
        },
        {
          "internalType": "address",
          "name": "_to",
          "type": "address"
        },
        {
          "internalType": "uint256",
          "name": "_amount",
          "type": "uint256"
        }
      ],
      "name": "transferFrom",
      "outputs": [
        {
          "internalType": "bool",
          "name": "",
          "type": "bool"
        }
      ],
      "stateMutability": "nonpayable",
      "type": "function"
    },
    {
      "inputs": [
        {
          "internalType": "address",
          "name": "newOwner",
          "type": "address"
        }
      ],
      "name": "transferOwnership",
      "outputs": [],
      "stateMutability": "nonpayable",
      "type": "function"
    },
    {
      "inputs": [],
      "name": "unpause",
      "outputs": [],
      "stateMutability": "nonpayable",
      "type": "function"
    }
  ],
  "bytecode": "0x60c0604052600860809081526726bc902a37b5b2b760c11b60a05260019061002790826101f0565b506040805180820190915260038152624d544b60e81b602082015260029061004f90826101f0565b506003805460ff1916601217905569d3c21bcecceda100000060045534801561007757600080fd5b50338061009e57604051631e4fbdf760e01b81526000600482015260240160405180910390fd5b6100a7816100f8565b5060045433600081815260056020908152604080832085905551938452919290917fddf252ad1be2c89b69c2b068fc378daa952ba7f163c4a11628f55a4df523b3ef910160405180910390a36102ae565b600080546001600160a01b03838116610100818102610100600160a81b0319851617855560405193049190911692909183917f8be0079c531659141344cd1fd0a4f28419497f9722a3daafe3b4186f6b6457e091a35050565b634e487b7160e01b600052604160045260246000fd5b600181811c9082168061017b57607f821691505b60208210810361019b57634e487b7160e01b600052602260045260246000fd5b50919050565b601f8211156101eb57806000526020600020601f840160051c810160208510156101c85750805b601f840160051c820191505b818110156101e857600081556001016101d4565b50505b505050565b81516001600160401b0381111561020957610209610151565b61021d816102178454610167565b846101a1565b6020601f82116001811461025157600083156102395750848201515b600019600385901b1c1916600184901b1784556101e8565b600084815260208120601f198516915b828110156102815787850151825560209485019460019092019101610261565b508482101561029f5786840151600019600387901b60f8161c191681555b50505050600190811b01905550565b610bc7806102bd6000396000f3fe608060405234801561001057600080fd5b50600436106101005760003560e01c80635c975abb116100975780638da5cb5b116100665780638da5cb5b1461021257806395d89b411461023b578063a9059cbb14610243578063f2fde38b1461025657600080fd5b80635c975abb146101d757806370a08231146101e2578063715018a6146102025780638456cb591461020a57600080fd5b8063313ce567116100d3578063313ce567146101705780633f4ba83a1461018f57806340c10f191461019957806343a47f04146101ac57600080fd5b806306fdde0314610105578063095ea7b31461012357806318160ddd1461014657806323b872dd1461015d575b600080fd5b61010d610269565b60405161011a91906109f5565b60405180910390f35b610136610131366004610a5f565b6102f7565b604051901515815260200161011a565b61014f60045481565b60405190815260200161011a565b61013661016b366004610a89565b610367565b60035461017d9060ff1681565b60405160ff909116815260200161011a565b610197610589565b005b6101976101a7366004610a5f565b6105a3565b61014f6101ba366004610ac6565b600660209081526000928352604080842090915290825290205481565b60005460ff16610136565b61014f6101f0366004610af9565b60056020526000908152604090205481565b610197610694565b6101976106a6565b60005461010090046001600160a01b03166040516001600160a01b03909116815260200161011a565b61010d6106be565b610136610251366004610a5f565b6106cb565b610197610264366004610af9565b610855565b6001805461027690610b1b565b80601f01602080910402602001604051908101604052809291908181526020018280546102a290610b1b565b80156102ef5780601f106102c4576101008083540402835291602001916102ef565b820191906000526020600020905b8154815290600101906020018083116102d257829003601f168201915b505050505081565b6000610301610893565b3360008181526006602090815260408083206001600160a01b03881680855290835292819020869055518581529192917f8c5be1e5ebec7d5bd14f71427d1e84f3dd0314c0f7b2291e5b200ac8c7c3b92591015b60405180910390a35060015b92915050565b6000610371610893565b6001600160a01b0383166103cc5760405162461bcd60e51b815260206004820152601e60248201527f63616e2774207472616e7366657220746f207a65726f2061646472657373000060448201526064015b60405180910390fd5b6001600160a01b03841660009081526005602052604090205482111561042b5760405162461bcd60e51b8152602060048201526014602482015273496e73756666696369656e742062616c616e636560601b60448201526064016103c3565b6001600160a01b038416600090815260066020908152604080832033845290915290205482111561049e5760405162461bcd60e51b815260206004820152601760248201527f4572726f72206f6e20616c6c6f7765644164647265737300000000000000000060448201526064016103c3565b6001600160a01b038416600090815260056020526040812080548492906104c6908490610b6b565b90915550506001600160a01b038316600090815260056020526040812080548492906104f3908490610b7e565b90915550506001600160a01b03841660009081526006602090815260408083203384529091528120805484929061052b908490610b6b565b92505081905550826001600160a01b0316846001600160a01b03167fddf252ad1be2c89b69c2b068fc378daa952ba7f163c4a11628f55a4df523b3ef8460405161057791815260200190565b60405180910390a35060019392505050565b6105916108b7565b6105996108ea565b6105a161090d565b565b6105ab6108b7565b6105b3610893565b6001600160a01b0382166106095760405162461bcd60e51b815260206004820152601a60248201527f63616e2774206d696e7420746f207a65726f206164647265737300000000000060448201526064016103c3565b6001600160a01b03821660009081526005602052604081208054839290610631908490610b7e565b92505081905550806004600082825461064a9190610b7e565b90915550506040518181526001600160a01b038316906000907fddf252ad1be2c89b69c2b068fc378daa952ba7f163c4a11628f55a4df523b3ef9060200160405180910390a35050565b61069c6108b7565b6105a1600061095f565b6106ae6108b7565b6106b6610893565b6105a16109b8565b6002805461027690610b1b565b60006106d5610893565b6000821161071b5760405162461bcd60e51b81526020600482015260136024820152721d1a195c9948185c99481b9bc8185b5bdd5b9d606a1b60448201526064016103c3565b6001600160a01b0383166107715760405162461bcd60e51b815260206004820152601e60248201527f63616e2774207472616e7366657220746f207a65726f2061646472657373000060448201526064016103c3565b336000908152600560205260409020548211156107c75760405162461bcd60e51b8152602060048201526014602482015273496e73756666696369656e742062616c616e636560601b60448201526064016103c3565b33600090815260056020526040812080548492906107e6908490610b6b565b90915550506001600160a01b03831660009081526005602052604081208054849290610813908490610b7e565b90915550506040518281526001600160a01b0384169033907fddf252ad1be2c89b69c2b068fc378daa952ba7f163c4a11628f55a4df523b3ef90602001610355565b61085d6108b7565b6001600160a01b03811661088757604051631e4fbdf760e01b8152600060048201526024016103c3565b6108908161095f565b50565b60005460ff16156105a15760405163d93c066560e01b815260040160405180910390fd5b6000546001600160a01b036101009091041633146105a15760405163118cdaa760e01b81523360048201526024016103c3565b60005460ff166105a157604051638dfc202b60e01b815260040160405180910390fd5b6109156108ea565b6000805460ff191690557f5db9ee0a495bf2e6ff9c91a7834c1ba4fdd244a5e8aa4e537bd38aeae4b073aa335b6040516001600160a01b03909116815260200160405180910390a1565b600080546001600160a01b03838116610100818102610100600160a81b0319851617855560405193049190911692909183917f8be0079c531659141344cd1fd0a4f28419497f9722a3daafe3b4186f6b6457e091a35050565b6109c0610893565b6000805460ff191660011790557f62e78cea01bee320cd4e420270b5ea74000d11b0c9f74754ebdbfc544b05a2586109423390565b602081526000825180602084015260005b81811015610a235760208186018101516040868401015201610a06565b506000604082850101526040601f19601f83011684010191505092915050565b80356001600160a01b0381168114610a5a57600080fd5b919050565b60008060408385031215610a7257600080fd5b610a7b83610a43565b946020939093013593505050565b600080600060608486031215610a9e57600080fd5b610aa784610a43565b9250610ab560208501610a43565b929592945050506040919091013590565b60008060408385031215610ad957600080fd5b610ae283610a43565b9150610af060208401610a43565b90509250929050565b600060208284031215610b0b57600080fd5b610b1482610a43565b9392505050565b600181811c90821680610b2f57607f821691505b602082108103610b4f57634e487b7160e01b600052602260045260246000fd5b50919050565b634e487b7160e01b600052601160045260246000fd5b8181038181111561036157610361610b55565b8082018082111561036157610361610b5556fea264697066735822122066ac5d2e0b543eb9dd70c00f3fb6fb267813647ac6b56621860c386add27d2e364736f6c634300081e0033",
  "linkReferences": {},
  "deployedLinkReferences": {}
}