{
  "_format": "hh-sol-artifact-1",
  "contractName": "MyERC20Token",
  "sourceName": "contracts/Learn.sol",
  "abi": [
    {
      "inputs": [],
      "stateMutability": "nonpayable",
      "type": "constructor"
    },
    {
      "anonymous": false,
      "inputs": [
        {
          "indexed": true,
          "internalType": "address",
          "name": "owner",
          "type": "address"
        },
        {
          "indexed": true,
          "internalType": "address",
          "name": "spender",
          "type": "address"
        },
        {
          "indexed": false,
          "internalType": "uint256",
          "name": "value",
          "type": "uint256"
        }
      ],
      "name": "Approval",
      "type": "event"
    },
    {
      "anonymous": false,
      "inputs": [
        {
          "indexed": true,
          "internalType": "address",
          "name": "from",
          "type": "address"
        },
        {
          "indexed": true,
          "internalType": "address",
          "name": "to",
          "type": "address"
        },
        {
          "indexed": false,
          "internalType": "uint256",
          "name": "value",
          "type": "uint256"
        }
      ],
      "name": "Transfer",
      "type": "event"
    },
    {
      "inputs": [
        {
          "internalType": "address",
          "name": "",
          "type": "address"
        },
        {
          "internalType": "address",
          "name": "",
          "type": "address"
        }
      ],
      "name": "allowedAddress",
      "outputs": [
        {
          "internalType": "uint256",
          "name": "",
          "type": "uint256"
        }
      ],
      "stateMutability": "view",
      "type": "function"
    },
    {
      "inputs": [
        {
          "internalType": "address",
          "name": "_spender",
          "type": "address"
        },
        {
          "internalType": "uint256",
          "name": "_amount",
          "type": "uint256"
        }
      ],
      "name": "approve",
      "outputs": [],
      "stateMutability": "nonpayable",
      "type": "function"
    },
    {
      "inputs": [
        {
          "internalType": "address",
          "name": "",
          "type": "address"
        }
      ],
      "name": "balanceOf",
      "outputs": [
        {
          "internalType": "uint256",
          "name": "",
          "type": "uint256"
        }
      ],
      "stateMutability": "view",
      "type": "function"
    },
    {
      "inputs": [],
      "name": "decimals",
      "outputs": [
        {
          "internalType": "uint8",
          "name": "",
          "type": "uint8"
        }
      ],
      "stateMutability": "view",
      "type": "function"
    },
    {
      "inputs": [],
      "name": "name",
      "outputs": [
        {
          "internalType": "string",
          "name": "",
          "type": "string"
        }
      ],
      "stateMutability": "view",
      "type": "function"
    },
    {
      "inputs": [],
      "name": "symbol",
      "outputs": [
        {
          "internalType": "string",
          "name": "",
          "type": "string"
        }
      ],
      "stateMutability": "view",
      "type": "function"
    },
    {
      "inputs": [],
      "name": "totalSupply",
      "outputs": [
        {
          "internalType": "uint256",
          "name": "",
          "type": "uint256"
        }
      ],
      "stateMutability": "view",
      "type": "function"
    },
    {
      "inputs": [
        {
          "internalType": "address",
          "name": "_to",
          "type": "address"
        },
        {
          "internalType": "uint256",
          "name": "_amount",
          "type": "uint256"
        }
      ],
      "name": "transfer",
      "outputs": [],
      "stateMutability": "nonpayable",
      "type": "function"
    },
    {
      "inputs": [
        {
          "internalType": "address",
          "name": "_from",
          "type": "address"
        },
        {
          "internalType": "address",
          "name": "_to",
          "type": "address"
        },
        {
          "internalType": "uint256",
          "name": "_amount",
          "type": "uint256"
        }
      ],
      "name": "transferFrom",
      "outputs": [],
      "stateMutability": "nonpayable",
      "type": "function"
    }
  ],
  "bytecode": "0x60c0604052600860809081526726bc902a37b5b2b760c11b60a0526000906100279082610186565b506040805180820190915260038152624d544b60e81b602082015260019061004f9082610186565b506002805460ff1916601217905569d3c21bcecceda100000060035534801561007757600080fd5b50600354336000818152600460205260408120929092556002549091907fddf252ad1be2c89b69c2b068fc378daa952ba7f163c4a11628f55a4df523b3ef906100c49060ff16600a610343565b6003546100d19190610359565b60405190815260200160405180910390a3610370565b634e487b7160e01b600052604160045260246000fd5b600181811c9082168061011157607f821691505b60208210810361013157634e487b7160e01b600052602260045260246000fd5b50919050565b601f82111561018157806000526020600020601f840160051c8101602085101561015e5750805b601f840160051c820191505b8181101561017e576000815560010161016a565b50505b505050565b81516001600160401b0381111561019f5761019f6100e7565b6101b3816101ad84546100fd565b84610137565b6020601f8211600181146101e757600083156101cf5750848201515b600019600385901b1c1916600184901b17845561017e565b600084815260208120601f198516915b8281101561021757878501518255602094850194600190920191016101f7565b50848210156102355786840151600019600387901b60f8161c191681555b50505050600190811b01905550565b634e487b7160e01b600052601160045260246000fd5b6001815b60018411156102955780850481111561027957610279610244565b600184161561028757908102905b60019390931c92800261025e565b935093915050565b6000826102ac5750600161033d565b816102b95750600061033d565b81600181146102cf57600281146102d9576102f5565b600191505061033d565b60ff8411156102ea576102ea610244565b50506001821b61033d565b5060208310610133831016604e8410600b8410161715610318575081810a61033d565b610325600019848461025a565b806000190482111561033957610339610244565b0290505b92915050565b600061035260ff84168361029d565b9392505050565b808202811582820484141761033d5761033d610244565b61078a8061037f6000396000f3fe608060405234801561001057600080fd5b50600436106100935760003560e01c8063313ce56711610066578063313ce567146100f557806343a47f041461011457806370a082311461013f57806395d89b411461015f578063a9059cbb1461016757600080fd5b806306fdde0314610098578063095ea7b3146100b657806318160ddd146100cb57806323b872dd146100e2575b600080fd5b6100a061017a565b6040516100ad91906105b2565b60405180910390f35b6100c96100c436600461061c565b610208565b005b6100d460035481565b6040519081526020016100ad565b6100c96100f0366004610646565b610268565b6002546101029060ff1681565b60405160ff90911681526020016100ad565b6100d4610122366004610683565b600560209081526000928352604080842090915290825290205481565b6100d461014d3660046106b6565b60046020526000908152604090205481565b6100a0610425565b6100c961017536600461061c565b610432565b60008054610187906106d8565b80601f01602080910402602001604051908101604052809291908181526020018280546101b3906106d8565b80156102005780601f106101d557610100808354040283529160200191610200565b820191906000526020600020905b8154815290600101906020018083116101e357829003601f168201915b505050505081565b3360008181526005602090815260408083206001600160a01b03871680855290835292819020859055518481529192917f8c5be1e5ebec7d5bd14f71427d1e84f3dd0314c0f7b2291e5b200ac8c7c3b92591015b60405180910390a35050565b6001600160a01b0383166000908152600460205260409020548111156102cc5760405162461bcd60e51b8152602060048201526014602482015273496e73756666696369656e742062616c616e636560601b60448201526064015b60405180910390fd5b6001600160a01b038316600090815260056020908152604080832033845290915290205481111561033f5760405162461bcd60e51b815260206004820152601760248201527f4572726f72206f6e20616c6c6f7765644164647265737300000000000000000060448201526064016102c3565b6001600160a01b03831660009081526004602052604081208054839290610367908490610728565b90915550506001600160a01b03821660009081526004602052604081208054839290610394908490610741565b90915550506001600160a01b0383166000908152600560209081526040808320338452909152812080548392906103cc908490610728565b92505081905550816001600160a01b0316836001600160a01b03167fddf252ad1be2c89b69c2b068fc378daa952ba7f163c4a11628f55a4df523b3ef8360405161041891815260200190565b60405180910390a3505050565b60018054610187906106d8565b600081116104785760405162461bcd60e51b81526020600482015260136024820152721d1a195c9948185c99481b9bc8185b5bdd5b9d606a1b60448201526064016102c3565b6001600160a01b0382166104ce5760405162461bcd60e51b815260206004820152601e60248201527f63616e2774207472616e7366657220746f207a65726f2061646472657373000060448201526064016102c3565b336000908152600460205260409020548111156105245760405162461bcd60e51b8152602060048201526014602482015273496e73756666696369656e742062616c616e636560601b60448201526064016102c3565b3360009081526004602052604081208054839290610543908490610728565b90915550506001600160a01b03821660009081526004602052604081208054839290610570908490610741565b90915550506040518181526001600160a01b0383169033907fddf252ad1be2c89b69c2b068fc378daa952ba7f163c4a11628f55a4df523b3ef9060200161025c565b602081526000825180602084015260005b818110156105e057602081860181015160408684010152016105c3565b506000604082850101526040601f19601f83011684010191505092915050565b80356001600160a01b038116811461061757600080fd5b919050565b6000806040838503121561062f57600080fd5b61063883610600565b946020939093013593505050565b60008060006060848603121561065b57600080fd5b61066484610600565b925061067260208501610600565b929592945050506040919091013590565b6000806040838503121561069657600080fd5b61069f83610600565b91506106ad60208401610600565b90509250929050565b6000602082840312156106c857600080fd5b6106d182610600565b9392505050565b600181811c908216806106ec57607f821691505b60208210810361070c57634e487b7160e01b600052602260045260246000fd5b50919050565b634e487b7160e01b600052601160045260246000fd5b8181038181111561073b5761073b610712565b92915050565b8082018082111561073b5761073b61071256fea2646970667358221220ada5e4a8544a42409a1bffa02ead5ae621587043cebc15027afcff78e096a45f64736f6c634300081e0033",
  "linkReferences": {},
  "deployedLinkReferences": {}
}